:020000040000fa
:10000000f07f0020853000003b30000013310000fd
:1000100000000000000000000000000000000000e0
:100020000000000000000000000000002729000080
:100030000000000000000000272900002729000020
:100040002729000027290000272900002729000070
:10005000272900002729000027290000e539000092
:100060002729000027290000272900002729000050
:1000700027290000000000000000000027290000e0
:100080002729000027290000f53600002729000055
:1000900027290000000000000000000027290000c0
:1000a0002729000027290000272900002729000010
:020000040000fa
:1000b000f8b5c046f8bc08bc9e46704765300000e5
:1000c000f8b5c046f8bc08bc9e4670473d300000fd
:020000040000fa
:1000d000f0b5de4657464e464546e0b585b00500cc
:1000e0004378002b00d100e3836b002b00d1fce2ae
:1000f000446aa38b9b0505d5238b9b0502d58023e2
:100100009b00a383a38bdb0505d5238bdb0502d5e1
:1001100080235b00a383a38b1b0604d5238b1b06c4
:1001200001d58023a383a38b5b0604d5238b5b06b9
:1001300001d54023a383a38b9b0604d5238b9b0669
:1001400001d52023a383a38bdb070dd5238bdb07ee
:100150000ad50123a383a3820f33a3832383002221
:100160000421686bab6b9847a38bdb060dd5238b03
:10017000db060ad51023a383a3820f3ba38323832b
:1001800000220321686bab6b9847a38b5b0709d5f3
:10019000238b5b0706d50423a38300220721686b0a
:1001a000ab6b9847a38b1b0702d5238b1b0735d45a
:1001b0000823ff33e35cdb065dd50a23ff33e35cf2
:1001c000db0658d56e6cf37902229343f371f37b0f
:1001d0009343f3733768002f47d0296d0632386890
:1001e00003f0f7fb0823ff331022e254033b3032c5
:1001f000e2543a689179d3791b020b432ad1213317
:100200000722ea5402233b7206337b60bb693360ea
:10021000fb68002b2fd0380098472ce021230022c8
:10022000ea54237b1b079b0f984ad25c3023ea5485
:10023000280050306022002103f0f4fbab6b002b50
:1002400003d000220221686b98478023a372783b79
:10025000a383ade713787f2b03d821230222ea542e
:10026000d0e721230622ea54cce721230122ea54d5
:10027000e7330f32e2540823ff33e35c9b0737d5a3
:100280000a23ff33e35c9b0732d56b6c9e68002e1c
:100290002ed02122aa5c082a1ad0316a002971d1f5
:1002a000327c51b200295ddb21220521a9540022b4
:1002b0003272b2699a60f368002b01d0300098471f
:1002c0000823ff330222e254033b3e32e2540fe0a4
:1002d000002221216a543272b16999607260f36818
:1002e000002b01d0300098470823ff330222e2544c
:1002f0000823ff33e35cdb0700d4a3e00a23ff33ca
:10030000e35cdb0700d49de06b6c98462123eb5c3b
:10031000052b59d043461e68002e74d06f6dbf0464
:10032000bf0c306a73683a189a4201d91f1abfb2db
:10033000296d33689c4660443a0003f04afb336af7
:10034000fb1833627268934264d241468988b9428d
:1003500060d882235b004022e2540823ff333f3af7
:10036000e2546fe07f231a4032746b6e9b0b9b0349
:100370006b660823ff330222e2540623ff337e32ea
:10038000e254b5e79f89b94200d88fb2286e7368ee
:10039000591a33689c4661443a0003f01afb336ae9
:1003a000db1b33626b6e9b0b9b036b666b6ebf0438
:1003b000bf0c1f436f660823ff330222e25406235b
:1003c000ff337e32e25493e743461868002813d087
:1003d000002303722122ab540822ff320121a154d1
:1003e000033a3f31a1544246816911604360c368ba
:1003f000002b27d0984725e021230422ea54e73335
:10040000033ae2541ee021230322ea54e733023a7e
:10041000e25417e093429b415b423372212307224f
:10042000ea540823ff33063ae254033b3f32e254d6
:100430004346b2691a60336a7360f368002b01d0d7
:1004400030009847012601239b460827ff370733d2
:100450009a4649e07f22134003744346ea18536edc
:100460009b0b9b0353660a234a46d3550623ff334f
:1004700080224946ca5434e0009b5b01e3180933eb
:10048000ff330a321a704b46da552ae0b83a0000b8
:10049000019b9b89994200d88bb24268511a02682d
:1004a000944661444246aa181166016ac91a01625b
:1004b000516e890b89035166516e9b049b0c0b4353
:1004c00053660a234a46d355009b5b01e3180a335f
:1004d000ff331a00022313700623ff33802249469c
:1004e000ca540136032e73d0238c9bb2009633413d
:1004f00059461942f5d07301e3180a33ff331b78cc
:10050000dbb2039373019846a146c1444b46db5dc1
:10051000dbb20293029b5146194212d0039b19424f
:100520000fd04346eb186a331b789b0709d5434627
:10053000eb186a331a7802218a431a704b465246e6
:10054000da55029b9b07ccd5039b9b07c9d52b0093
:100550004433b2009b58019398680028c1d0016ac7
:10056000002995d1037c5ab2002a00da72e70023f1
:100570000372019b82699a60c368002b00d0984780
:10058000019b9a68002a00d176e7106a019b9b893b
:10059000984200d883b25168081a11688c466044aa
:1005a000414669180866106ac01a10624a6e920bba
:1005b00092034a664a6e9b049b0c13434b660a23c4
:1005c0004a46d3550623ff3380224946ca5488e75a
:1005d000023e012399460823ff339a4621e0002377
:1005e00003725b4682691a60036a4360c368002b2a
:1005f00000d098475b461b68002b6cd01a687f01bf
:10060000eb191a650523424651465354e7190a3738
:10061000ff373b70ff3340224146ca540136032e58
:1006200063d0238c9bb2370033414a461a42f5d03f
:100630007301e3180a33ff331b78dbb203937301b2
:100640009846a044434652469b5cdbb20293029b11
:1006500004221a4210d07301eb185a331b789b07ff
:1006600006d57301eb185a331a7802218a431a709f
:100670004346524604219954029b4a461a42cdd021
:10068000039b1a42cad02b004433b2009b589b46ae
:1006900018680028c2d07b01eb185b6d9b049b0c93
:1006a000026a9a18026241688a4298d25946898839
:1006b00099420dd803689a187f01ef193a6505230e
:1006c000424651465354ff3340224146ca54a5e79f
:1006d0004b46037285e77f01e7190937ff3705228b
:1006e0003a70434651465a5498e705b03cbc904690
:0806f0009946a246ab46f0bd9d
:020000040000fa
:1006f800f8b5de4657464e464546e0b504001500b7
:100708000f270f404eb2431e033300d9c2e108231e
:10071800d356022b00ddc0e1022f00d9c0e1436aa5
:1007280098463b0010339b00c318596832110823c0
:1007380013408a469a445346db79db0700d4b2e17a
:100748006b68994653469988484601f0b3f90029e1
:100758004cd0002e00dba9e1e378002b4cd000231d
:10076800ab6103332b7200239946696829625346ab
:100778001a68002a00d072e104232b720023eb616f
:1007880053461d60002f00d02be1002e00dae8e070
:100798002123e35c032b6ad0042b00d1c7e0012b93
:1007a80000d061e1216d0832286803f00ef9822338
:1007b8005b0040224146ca54f43b0822ff328b5466
:1007c8000a22ff328b542b689a79002a44d12123bc
:1007d8000732e2545346aa691a6002232b72eb6867
:1007e800002b00d140e1280098473de1002e0edba8
:1007f800e378002b00d05ce1a37b012b1bd07f208a
:1008080040423cbc90469946a246ab46f8bd2b7c7c
:10081800da0706d54a46002a03d0802252421343fb
:100828002b74e378002be7d00023ab6103332b72e2
:100838000023994699e700239b46a3730a20205674
:1008480002f026fd81465b46ab6103332b72002123
:10085800002e00db8ae788e71b787f2b03d821234b
:100868000222e254b6e721230622e254b2e7666d7b
:10087800b604b60c286a6b6832189a4201d91e1a57
:10088800b6b2216d2b689c466044320003f09df897
:100898002b6af3182b626a6893421bd300232b72ce
:1008a80021330822e254203bff3241468b540a226e
:1008b800ff328b540433ff33c93aca542b6a6b6036
:1008c8005346aa691a60eb68002b00d1cce02800d7
:1008d8009847c9e053469b88b3421bd901232b7222
:1008e80021220821a1540822ff3241468b540a22b2
:1008f800ff328b540433ff33c93aca542b6a6b60f6
:100908005346aa691a60eb68002b00d1ace02800b6
:100918009847a9e001230822ff3241468b540a2256
:10092800ff328b540433ff33c93aca549ce0002386
:100938002122a3542b7201330822ff3241468b54e3
:100948000a22ff328b540433ff33c93aca54534640
:10095800aa691a60eb68002b00d185e02800984747
:1009680082e02123e35c062b14d0072b7cd12123c2
:100978000822e254636e9b0b9b0363660223ff32db
:1009880041468b540a22ff328b540623ff33893a9f
:10099800ca5469e02b6a52469688b34200d29eb286
:1009a800206e3200296803f010f82b6a9b1b2b621b
:1009b80021230922e254636e9b0b9b036366626edc
:1009c800b3049b0c1343636602230822ff3241469b
:1009d8008b540a22ff328b540623ff33893aca54b8
:1009e80042e0002e12db29687b01e21811651f0026
:1009f800474405220821ff317a543b000a33ff336c
:100a08001a7082235b003b32fa542de0286a9b88d7
:100a1800984200d883b26a68101a2a6894466044db
:100a28007a01a1180866286ac01a2862486e800be5
:100a380080034866486e9b049b0c03434b66130077
:100a480043440a220821ff315a541f000a37ff374e
:100a58003a700622ff328739995405e01a009369e3
:100a6800002bfbd19561ea61e3780020002b00d0d0
:100a7800c7e64b46002b09d0a37a5ab2002a05dbf9
:100a88001f221a40012393400d4a13600123a373c8
:100a98000020b6e67d204042b3e67b204042b0e627
:100aa8007c204042ade676204042aae67d204042c6
:100ab800a7e60023ab6103332b720023994655e662
:040ac80000e100e069
:020000040000fa
:100acc0003460b437fd4002243088b4274d30309a3
:100adc008b425fd3030a8b4244d3030b8b4228d344
:100aec00030c8b420dd3ff22090212ba030c8b426a
:100afc0002d31212090265d0030b8b4219d300e00a
:100b0c00090ac30b8b4201d3cb03c01a5241830b8e
:100b1c008b4201d38b03c01a5241430b8b4201d33e
:100b2c004b03c01a5241030b8b4201d30b03c01a67
:100b3c005241c30a8b4201d3cb02c01a5241830ae1
:100b4c008b4201d38b02c01a5241430a8b4201d310
:100b5c004b02c01a5241030a8b4201d30b02c01a3a
:100b6c005241cdd2c3098b4201d3cb01c01a5241a1
:100b7c0083098b4201d38b01c01a524143098b422a
:100b8c0001d34b01c01a524103098b4201d30b0113
:100b9c00c01a5241c3088b4201d3cb00c01a524138
:100bac0083088b4201d38b00c01a524143088b42fd
:100bbc0001d34b00c01a5241411a00d20146524196
:100bcc00104670475de0ca0f00d04942031000d3b5
:100bdc004042534000229c4603098b422dd3030a0a
:100bec008b4212d3fc22890112ba030a8b420cd31a
:100bfc00890192118b4208d3890192118b4204d343
:100c0c0089013ad0921100e08909c3098b4201d3c2
:100c1c00cb01c01a524183098b4201d38b01c01afc
:100c2c00524143098b4201d34b01c01a5241030973
:100c3c008b4201d30b01c01a5241c3088b4201d322
:100c4c00cb00c01a524183088b4201d38b00c01acf
:100c5c005241d9d243088b4201d34b00c01a5241a6
:100c6c00411a00d20146634652415b10104601d333
:100c7c004042002b00d54942704763465b1000d3bd
:100c8c00404201b5002002f019ff02bd0029f8d046
:040c9c0016e77047a0
:020000040000fa
:100ca000f0b5d6464f464646c0b50f260e40022e3a
:100cb00000d9b1e0fe25ad001c00083ca4b2ac4256
:100cc00000d9ace0441c00d1ace0446aa146082b3a
:100cd00049d9002408250134e4b26d00adb2ab421d
:100ce000f9d835001035ad0045196d68002a3cd1a2
:100cf0002a60ab80aa710126e9793143e971aa60c3
:100d0000ab81aa73eb7b3343eb7380235b004946d3
:100d1000ca541132ca54426d44490a404265436e76
:100d20000b404366436d2407e022d2051440234361
:100d30004365436e1c434466036903654369036668
:100d4000436d5b005b084365436e5b005b08436675
:100d50000a23ff3313224946ca5400201cbc904684
:100d60009946a246f0bd0024bbe749b28a46091164
:100d7000884608218c464146674639408c46654482
:100d800000212960ab80aa71eb7901218c46614674
:100d90000b43eb715346002b29db73014b441f00bf
:100da00080235b00fd5c07218d43fd54fd5c5200f8
:100db0001f49525c1543fd540623ff334022fa5469
:100dc00076005346d90f761836018019436d174abd
:100dd00013404365436d2407e022d20514401c43b1
:100de0004465436d5b005b0843650020b6e7730113
:100df0004b441f0080235b00fd5c70218d43fd543c
:100e0000fd5c520094460a4a624452781543fd54f0
:100e100004338022fa54d3e77c2040429ee77c20b2
:100e200040429be77d20404298e7c046ffffff8f8e
:040e3000903a0000f4
:020000040000fa
:100e340070b582b05b4b1a79062a66d893005a4a79
:100e4400d3589f4602f052fd0021584802f00cfe90
:100e54000321002002f03cfa524b1860431c54d08a
:100e64000022534902f0cefb4e4b01221a714ce092
:100e74004c4b1b7b002b48d04a4b02221a7144e096
:100e840002f0e8fb002840d1464b03221a711d32c0
:100e94009b5c002b39d0434c20230022e254213b9d
:100ea400a3618133210018319b00a26a00f08afefd
:100eb400a369013329d13b4b07221a7125e002f0c3
:100ec400c9fb002821d1374a2023d35c002b1cd036
:100ed400936a1b78742b05d0412b0ed0314b022220
:100ee4001a7112e0140004223249e06a02f06ffd24
:100ef400032363630233237107e02a4b04221a712c
:100f040003e002f0a7fb002801d002b070bd254c1d
:100f140021230022e254223be361636be26a210055
:100f24001c3101300090002000f06efa062323717a
:100f3400ebe702f08ffb0028e7d11a4a2123d35ca8
:100f4400002be2d0130002221a71dee702f082fbca
:100f54000028dad1134b9b6a1b78412b03d0114b29
:100f640002221a71d1e7144b00221a60134e144d59
:100f7400340002f0affc356023685a1e2260002b57
:100f8400fadc02f0b3fc0d4b1d601a001368591e05
:100f94001160002bfadc084a136801331360062b36
:100fa400e7dddce790080020a4380000813400006d
:100fb400a52a0000c43a000060090020640900204a
:040fc400ffff0f001c
:020000040000fa
:100fc800f0b5de4657464e464546e0b583b00400c8
:100fd8000e000f250d40022d02d9102900d0a6e0e1
:100fe800631c00d1a6e0676ae378002b13d1a37bca
:100ff800012b08d07f20404203b03cbc9046994664
:10100800a246ab46f0bd0023a3730a20205602f087
:101018003ff9834601e000239b46102e28d0002d7f
:1010280056d17f23842149007b540821ff317b540a
:1010380081330021f954636cd97901208143d97136
:10104800d97b8143d973e3780020002bd4d15b4648
:10105800002b09d0a37a5ab2002a05db1f221a40b6
:1010680001239340354a13600123a3730020c3e78b
:101078001023842149007b540821ff317b5426002a
:101088004436019600211b019946002398467f2586
:101098000823ff339c4601204b01fb184e4642466d
:1010a8009a558422520092469a44524615706246d6
:1010b8009d54019a08ca0192da7916008643de71b6
:1010c800da7b16008643de7301310329e4d1bae7df
:1010d80076b2002e1bdb6b01fb1880204000195ce8
:1010e8000727b943195405210820ff30195409333b
:1010f800ff3319701035ad0065196b68361108217a
:101108000e409e19f37907398b43f3719be76b0106
:10111800fb1880204000195c7027b94319540a2134
:101128000820ff3019540933ff331970e2e77c2097
:10113800404261e77d2040425ee7c04600e100e0b2
:020000040000fa
:10114800240900201c00000000000000000400200a
:1011580034010000000000001008002040000000da
:1011680000000000500800204000000000000000bf
:10117800cc08002030000000000000002c070020f0
:101188005000000001000000b93500009d39000042
:10119800f5390000353a0000433a0000af39000045
:1011a8000d38000019280000a10c0000c90f00002c
:1011b800c51a000061160000b13400008136000035
:1011c800f90600008d240000d1250000053a000032
:1011d8000b1400000000000058090020080000005f
:1011e80000000000fc0800202800000000000000ab
:1011f80020060020a00000000000000034050020a8
:10120800ec00000000000000c00600206c00000098
:1012180000000000cc07002044000000000000008f
:101228004c0900200a00000000000000700900209e
:101238000200000000000000400900200c0000002f
:1012480000000000900800203c00000000000000a2
:101258000000002000020000000000000002002042
:1012680000020000000000006009002004000000e7
:1012780000000000640900200400000000000000d5
:101288005609002001000000000000006809002045
:1012980004000000000000007c070020500000004f
:1012a800000000006c09002004000000000000009d
:1012b8000000000000000000222222222222222216
:020000040000fa
:1012c800f0b583b005000c004978032900d179e016
:1012d8001dd9052930d009292cd1a278e3781b0221
:1012e800134304d1c17807220a40052a2ed0ad2223
:1012f800aa5cdbb29a4200d17fe0ae23ef5c002ffc
:1013080041d00233ea580023b4218c4633e0012946
:101318000ad1a278e3781b021343012b05d1bf330e
:101328000022c254002100e00121280001f05cfee7
:1013380003b0f0bd0121f8e7027880235b42134334
:101348000370a278ac23c2540021eee7b83306320a
:10135800c25401f0fdfdad230022ea54eb780732b8
:10136800934304221343eb700021dee70133dbb221
:101378000432bb4207d011684e79a0788642f5d175
:1013880060462950f2e7a278ad23ea54280001f01c
:1013980047fbeb780722934305221343eb70a278af
:1013a80001ab1a70d523eb5c0021012bbdd1d733db
:1013b800eb58002b23d0dc22aa5801a90a20984711
:1013c8000021b2e7a278e3781b021343012b0fd068
:1013d8000121022ba9d102780c331340022ba4d18e
:1013e80063798370437801221343437000219ce79b
:1013f800bf330122c254002197e7002195e700215d
:0214080093e768
:020000040000fa
:02140a00704729
:020000040000fa
:10140c00f0b5c64600b506000f0015001c0006ab73
:10141c001b78002800d073e0012252420a60404a37
:10142c00127c002a00d16ee0002c00d16ee09a07ed
:10143c000ad53b4bd989a14200d96ae0200000f0c3
:10144c0037fb641a022101e001211940344b5a6b1d
:10145c009b6a9a4260d2334b5b78012b05d0602497
:10146c006442200004bc9046f0bd2e4b00225a7002
:10147c002d4b1b7a5bb2012b10dd2b4a2c23d35640
:10148c00012b0add5023d3560226012b06dd254bfa
:10149c0001225a7080246442e3e70126224af000bc
:1014ac0083199b009846904483199b009d5043469a
:1014bc005c600023444663611c4be3604646217428
:1014cc0002f0e8fa164c636b0133636302f0e6fa40
:1014dc003e60217b2068424602f0f2f8041e03d1e4
:1014ec00104b01225a70bce702f0d4fa0c4a536b31
:1014fc00013b536302f0d2fa01235b423b60efe7fe
:10150c0078246442ade776246442aae77e246442e0
:10151c00a7e77e246442a4e780246442a1e7c04686
:10152c00cc07002070090020c0060020912b000081
:020000040000fa
:10153c0030b583b0002800d081e0444b1b78002be1
:10154c0000d07fe0414b01229a731a7020301a545c
:10155c004c685c62c87b5872002058709863187194
:10156c008d7a9d72cd7add720d7b1d734d7b5d7313
:10157c00d87022705a6a013093780342fcd10a2346
:10158c00d370334b1b685b0b0193019a1f231340e1
:10159c001f2b33d02d4a526a108d9b0103431385a8
:1015ac00019b9b05db0e1f2b2ad0108d034313854b
:1015bc00019bdb045b0f072b24d0108d1b03034313
:1015cc0013850b7a002b03d013780420034313707c
:1015dc001e4b5b7a012b17d01c4a516a0b780220e8
:1015ec0003430b70516a02228b781342fcd1174ac9
:1015fc0020230221d154002003b030bd1a3bc9e78f
:10160c00023bd2e7043bd8e7104b5a6a1800503023
:10161c0050623c22002098540a6a1a645a6a138950
:10162c000c308343897b032906d09bb213810021a4
:10163c00064801f067fecfe701310b43f5e70120c7
:10164c004042d9e701204042d6e7c04600040020c2
:04165c002460800086
:020000040000fa
:10166000f8b5ce46474680b5060088460f240c40a4
:10167000022c00d97ce0431c00d17ce0476a2300a7
:1016800010339b00c3185d68c378002b10d1837b97
:10169000012b05d07f2040420cbc90469946f8bdf6
:1016a000002383730a20305601f0f6fd814601e0e5
:1016b00000239946002c2dd182235b00f722fa5497
:1016c0000823ff33783afa54eb790227bb43eb71d6
:1016d000043c2100280001f045ffeb7bbb43eb738a
:1016e00028000830210001f03dfff3780020002b96
:1016f000d2d14b46002b09d0b37a5ab2002a05db6f
:101700001f221a40012393401c4a13600123b37324
:101710000020c1e743465bb298461b1108201840e1
:101720002818c37902229343c3710421494201f06e
:1017300019ff4346002b0ddb64013c1982235b003b
:101740001022e2540822ff322021a154073aff3a26
:10175000e254cae764013f1982235b002022fa5455
:101760000822ff324021b954063aff3afa54bce746
:101770007c20404290e77d2040428de700e100e080
:020000040000fa
:1017800070b582b0040016006b460022da710e2993
:1017900001d002b070bdec2545433f4bed18b27946
:1017a000f3791b0213432a00e03213802b00e43349
:1017b0001b681b6c7231e86998473378db06db0ed7
:1017c000dab2012a2cd05bb2002b09d0022a38d021
:1017d000032aded132000e21280001f080fed8e776
:1017e0003278602313400cd152b2002a04db31005e
:1017f0002800fff769fdcce73100280000f0e2fa8d
:10180000c7e7402b06d0202bc3d10121280001f0cf
:10181000effbbee732000e21280001f060feb8e7c2
:10182000327860231340402b05d0317932002800f4
:1018300001f042fbade731793200280001f03cfbba
:10184000a7e7317900290ad1337860221a421bd1e7
:101850006b46d9793200280001f022f899e76b46ef
:10186000da1d280001f0f8fcec2363430a4ce4186d
:10187000e27807231340052b01d10028e4d1012190
:10188000280001f0b5fb84e76b46d97932002800c7
:0c18900001f012fb7de7c046340500208b
:020000040000fa
:10189c00f8b504000d0016000823c356002b7ddd9f
:1018ac00092979d88b003e4ad3589f4643780422a5
:1018bc0093434370e427c3591b6c0021c0699847bc
:1018cc00e3591b6c8021e0699847200001f03efb36
:1018dc00e3595b6a1021e0699847e3591f6a40237a
:1018ec0000228021e069b8479023e356022b07dce5
:1018fc0022008832e423e3589b6b0021e06998476f
:10190c00e3780722934303221343e370e423e35861
:10191c001b69e0699847072303405b0020780e227f
:10192c00904318432070e2680e231840022816d00a
:10193c00b0239168e1501279023be254ad230022ae
:10194c00e254d523e35c012b28d1d733e358002b89
:10195c0024d0dc22a2583100280098471ee0a23384
:10196c005169e150127c023be254e7e743780422d0
:10197c0093434370e5e74378042213434370e0e755
:10198c00c3780722934301221343c370d9e7c3786a
:10199c0007229343c370d4e7002dd2d1f8bdc046c3
:0419ac00e035000022
:020000040000fa
:1019b000002243088b4274d303098b425fd3030a8e
:1019c0008b4244d3030b8b4228d3030c8b420dd3a1
:1019d000ff22090212ba030c8b4202d3121209022f
:1019e00065d0030b8b4219d300e0090ac30b8b426d
:1019f00001d3cb03c01a5241830b8b4201d38b031b
:101a0000c01a5241430b8b4201d34b03c01a5241bf
:101a1000030b8b4201d30b03c01a5241c30a8b4202
:101a200001d3cb02c01a5241830a8b4201d38b02ed
:101a3000c01a5241430a8b4201d34b02c01a524191
:101a4000030a8b4201d30b02c01a5241cdd2c30903
:101a50008b4201d3cb01c01a524183098b4201d37f
:101a60008b01c01a524143098b4201d34b01c01a6a
:101a7000524103098b4201d30b01c01a5241c308e2
:101a80008b4201d3cb00c01a524183088b4201d351
:101a90008b00c01a524143088b4201d34b00c01a3d
:101aa0005241411a00d20146524110467047ffe7a9
:101ab00001b5002002f008f802bdc0460029f7d0a9
:041ac00076e770470e
:020000040000fa
:101ac400f8b5ce46474680b506000d000f240c40fd
:101ad400022c00d96de0431c00d16de0476a23005d
:101ae40010339b00c3185b689846c378002b10d151
:101af400837b012b05d07f2040420cbc9046994645
:101b0400f8bd002383730a20305601f0c3fb8146dd
:101b140001e000239946002c29d06db2002d42db50
:101b2400083464013c19102363712d1108231d40ee
:101b3400454403214942280001f012fdeb790222b9
:101b44001343eb71f3780020002bd6d14b46002bc6
:101b540009d0b37a5ab2002a05db1f221a400123a6
:101b64009340174a13600123b3730020c5e706238b
:101b7400ff332022fa54103afa54033c2100404621
:101b840001f0eefc02254346db792b434246d37138
:101b940040460830210001f0e3fc4346db7b2b4345
:101ba4004246d373cee7083464013f1920237b7186
:101bb400bbe77c204042a0e77d2040429de7c04631
:041bc40000e100e05c
:020000040000fa
:101bc800f8b50e0015001c00002862d101235b4205
:101bd8000b60374b9b7a002b5ed0354b1989200060
:101be800fff768ff002c5ad000295bd1304b9a6b65
:101bf800db6a9a4259d22f4b5b78012b03d06024c1
:101c080064422000f8bd2b4b00225a702a4b1b7ae5
:101c18005bb2012b10dd284a2c23d356012b0add99
:101c28005023d3560231012b06dd224b01225a7074
:101c380080246442e5e701211f48cb005f18bf00fc
:101c4800c7195a18920015507c6000227a611b4b04
:101c5800fb6001f021ff164ca36b0133a36301f075
:101c68001fff3760a17920683a0001f02bfd041ea0
:101c780003d1104b01225a70c3e701f00dff0c4a43
:101c8800936b013b936301f00bff01235b423360cd
:101c9800efe778246442b4e776246442b1e77e240f
:101ca8006442aee77e246442abe780246442a8e73e
:101cb800cc07002070090020c0060020212b00005e
:020000040000fa
:101cc800f0b5d6464f464646c0b5002867d100292c
:101cd80068d08b69002b68d0354b01301872002210
:101ce8001a83da780724a243da708a69da600e8ade
:101cf8001e824d695d610c7f0722144024011a7809
:101d08007027ba439246002291460027b846c0275a
:101d18004246da555246224382437f2422401a70b3
:101d28005a785b3ca4469c44643467461f5104348b
:101d380040271f510c341855083c4f461f55043492
:101d48001c4f1f5108341b511b4c1c679b67742484
:101d580018558243033082435a70d4224846985417
:101d68001032486a9850498c04329952002e10d08b
:101d780000241e0005e010350134e4b2338aa34282
:101d880007d9eb68002bf6d01b69002bf3d09847d6
:101d9800f1e700201cbc90469946a246f0bd012000
:101da8004042f7e701204042f4e701204042f1e7d2
:0c1db80034050020c11e0000d92c0000e2
:020000040000fa
:101dc40030b583b005000c00002301934b78062b3b
:101dd40014d0082b5ad0002b3bd1bc21435203789a
:101de400db07c022805cbf3a02405200db0f134382
:101df4006b542b00bc33019302204be0c068cb78ba
:101e0400072b57d89b002c4ad3589f462a780e2379
:101e14001340022b03d003680193122032e0c368fd
:101e2400019312202ee08b78ae22aa5c9a4210d93c
:101e3400b022aa589b009b58002b0ad001939a7891
:101e4400d8780002104325e02a7870231340102b21
:101e54002ed00121280001f0c9f829e02a78702346
:101e64001340102bf5d1023b1a40022a03d0436ad7
:101e740001930a2006e0036a01930a2002e001aa02
:101e840000f082fc0199002905d1e2e70300ad339b
:101e9400019301200199a279e3791b0213431a1ccf
:101ea4009bb2834200d9021c92b2280001f00cf9c3
:0c1eb40003b030bd0020e5e72c38000032
:020000040000fa
:101ec00070b505000823c3569a1c41d04469022b03
:101ed00007d04268002a42d1c423e25400210f26d1
:101ee0001ee0c233e35c002b0ed02300c433db685a
:101ef000002b09d0d822a558ab422ad02200c432e8
:101f0000908800220c219847c4230122e254230028
:101f1000c433284ada60228b9a80210024310e26ad
:101f20002300c433db68d822a558ab423cd0220042
:101f3000c43290880a00310098478c234022e25036
:101f400022008832e0695833e3589b6b00219847a0
:101f500070bddc23e25800210c20a847d4e7c4233d
:101f6000e35c002b1dd02300c43358789b78834258
:101f700002d800210d26d3e7cc23e35818182100fe
:101f8000243101f026fd2200c4326b6851785b18c1
:101f9000dbb253709278002101269a42c0d80c36e9
:101fa000bee700210126bbe7dc23e2583000a8474a
:081fb000c3e7c04681170000e1
:020000040000fa
:101fb800f0b5d6464f464646c0b50600431c45d048
:101fc800ec224243334b9b181b7a5bb2002b3ddd5e
:101fd800ec2242432f4b9b18d4331b78002b1cd088
:101fe800012b33d1ec2242432a4b9b181b8a98467b
:101ff800002b2bd0274bec224243d75c3f077f0fa7
:102008009b181a00ad32127891465d690024ec23c2
:102018004343204ad618b24625e0ec2343431d4cdf
:10202800e4182300e8331888043b1b681b680f2159
:102038009847e061431c09d0ec237343154ef6180a
:102048003300d43301221a70022333721cbc904629
:102058009946a246f0bda888984710350134e4b2e5
:10206800a3b24345f2d22b783b42f6d06b784b456e
:10207800f3d1f27807231340052beed153465b7852
:102088005b07ead4eb68002be7d0db68002be2d1d2
:08209800e3e7c0463405002017
:020000040000fa
:1020a000f0b5de4657464e464546e0b585b081461a
:1020b00000284bd02e4b196a83689a4600290cd011
:1020c0008b6852460392002290469a4545d30022df
:1020d00000238b460092019305e052468260244b18
:1020e000186233e0e3465e46b66834000025009a85
:1020f000019b12196b41009201935e46b669b4468a
:10210000002e12d06646b66800210f00009a019b8f
:10211000b6185f41474525d8e4d1039b9e42e1d9db
:1021200060465946009a019b01e0300059464c46f2
:10213000a0618c6151468a1a4b469a609b69002bbc
:1021400004d04a4691689a68521a9a6005b03cbc1d
:1021500090469946a246ab46f0bd054b1862816198
:102160000022e7e760465946009a019bdfe7c04638
:04217000fc08002047
:020000040000fa
:10217400f8b5314b1c6a59694a1c5a61914215d809
:10218400002c58d02c4a137f01331377a368002bfb
:1021940005d0a368013ba360146a002c43d0a36854
:1021a400002b40d101250027234e12e01a009b6921
:1021b40001339361e4e7e06901f02cf8e368002b54
:1021c40001d020699847346a002c2cd0a368002bd6
:1021d40029d125756575a378002b02d1e368002bfe
:1021e400e9d1200000f03cfea378002be6d1677013
:1021f400e4e701342035052c19d06301f3185b7d25
:10220400002bf6d063010d498c46634400215975b7
:10221400ab78012bedd1620162446b6893602800b6
:10222400fff73cffe5e7054d00242e00e5e7024af1
:10223400137f013b1377f8bdfc0800202006002023
:020000040000fa
:1022440070b504009a22520042432e4b9b1820334f
:102254001b785bb2002b0fdd9a2252004243294bbc
:102264009b189b6b002b07d09a2252004243254bac
:102274009b185d7a012d00d070bd9a225200424312
:10228400204b9b181b6c002b1ed0984706009a22eb
:10229400520062431b4b9b183c331b788342ebd0a8
:1022a40001281ad09a2252006243164b9b181b79bc
:1022b400002b1fd1134dad1800220921686bab6ba5
:1022c400984701232b7115e09a22520042430d4b8b
:1022d4009b183c331b78012bced09a235b006343bd
:1022e400084ef61800220821706bb36b9847002340
:1022f40033712e009a235b006343024ce4183c3490
:082304002670b9e70004002077
:020000040000fa
:10230c00000105010a010f0115011a011f01240129
:10231c0029012e01330138013e01430148014d01d1
:10232c00520157015c01610167016c017101760179
:10233c007b01800185018a018f0195019a019f0122
:10234c00a401a901ae01b301b801be01c301c801ca
:10235c00cd01d201d701dc01e101e701ec01f10172
:10236c00f601fb01000205020a020f0215021a0215
:10237c001f02240229022e02330238023e024302bb
:10238c0048024d02520257025c02610267026c0263
:10239c00710276027b02800285028a028f0295020c
:1023ac009a029f02a402a902ae02b302b802be02b4
:1023bc00c302c802cd02d202d702dc02e102e7025c
:0823cc00ec02f102f602fb0233
:020000040000fa
:1023d40030b583b00d0007a90c78002810d1284926
:1023e400506888621068c86292680a6300224a636f
:1023f4008a63ca63234a0a64042c03d0052c13d0cd
:1024040003b030bd1e4a1560089a5279022a04d0de
:102414000a2af5d11a4a1371f2e7089a9279022a24
:10242400eed1174a9374ebe7089b9a78d409d978cc
:1024340003230b40022b08d0032be1d163001c19aa
:10244400640014340e4b1c1905e0013463001c199c
:1024540064000b4b1c19089b1b79089949790902e4
:10246400194322706180089bdb789b079b0f0091c6
:102474000021280001f089f801232371c0e7c04638
:08248400cc0700204c090020e8
:020000040000fa
:10248c0070b505000c00431c41d0002942d0082334
:10249c00cb56012b41ddc378002b0dd1837b012b57
:1024ac0002d07f20404270bd002383730a2028563f
:1024bc0000f0ecfe060000e00026fe232372002351
:1024cc006360e369002b0ed0a2699a61a369002bab
:1024dc0001d0e269da610023e361a361e368002bb8
:1024ec0001d020009847eb780020002bdbd1002e88
:1024fc0009d0ab7a5ab2002a05db1f221a400123fd
:10250c009340074a13600123ab730020cbe77d2077
:10251c004042c8e77d204042c5e77d204042c2e7eb
:04252c0000e100e0ea
:020000040000fa
:102530001e4b00229a619a8c80218a439a841a0049
:102540001023d1680b42fcd0194b1a68920e3f2a17
:102550002ad0184b1b689b059b0d92021343134a0c
:1025600093621023d1680b42fcd0104b02229a8454
:102570001a001023d1680b42fcd00f4b0f4a5a604f
:102580001a0053785bb2002bfbdb0b4b0c4a5a80d2
:102590000c4a5a800c4a5a800c4ba122d2021a6271
:1025a000024b00221a627047203ad2e7000800402e
:1025b0002460800028608000000c004000070100bb
:1025c000064000001b4000002140000000040040c5
:020000040000fa
:1025d00070b504000f230b4049b2022b2ed8421cc9
:1025e0002fd010339b00c3185d68091108231940d0
:1025f0006d18c378002b29d1837b012b02d07f205b
:10260000404270bd002383730a20205600f044fe30
:10261000060002214942280000f0a4ffe378002bc5
:1026200012d1002e1bd0a37a5ab2002a17db1f2228
:102630001a40012393400c4a136010e07c20404272
:10264000dfe77d204042dce70020dae70221494253
:10265000280000f087ffe3780020002bd1d1012370
:0c266000a3730020cde7c04600e100e0bd
:020000040000fa
:10266c00802d0000802d00009a2d00009a2d000076
:10267c009a2d00009a2d00009a2d00009a2d000032
:10268c009a2d00009a2d00009a2d00009a2d000022
:10269c009a2d00009a2d00009a2d00009a2d000012
:1026ac009a2d00009a2d00009a2d00009a2d000002
:1026bc009a2d00009a2d00009a2d00009a2d0000f2
:1026cc009a2d00009a2d00009a2d00009a2d0000e2
:1026dc009a2d00009a2d00009a2d00009a2d0000d2
:1026ec00502d0000602d0000702d00008a2d000080
:020000040000fa
:1026fc00f0b5c6461f4a204b00b50021934203d2c9
:10270c00197001339342fbd10b231c4a9c46083ba6
:10271c0098461368546819000026214311d01700fd
:10272c0091680c3700290fd11a19002c03d01e7098
:10273c0001339342fbd13a001368546819002143ca
:10274c00edd104bc9046f0bd6146c91a1d19511853
:10275c00002c05d05a1c505c187013009542f9d10e
:10276c00434623405a1e9341a4081c19a4003f1948
:10277c003a00e1e7000000200000002048110000b2
:020000040000fa
:10278c00f8b5ce46474680b50d0090468e78c469a4
:10279c0027683b78023bdbb25a0891460022012b9a
:1027ac0005d9007e01384946fef78af9c2b20020ed
:1027bc00b24203d20cbc90469946f8bd002e03d110
:1027cc0043461f603878f5e72a796b791b021a4368
:1027dc004b4698b20028edd07b88934211d0043739
:1027ec00012301339bb298420dd30237b91e0988dd
:1027fc009142f6d173439b001b59424613601878e3
:0a280c00d8e70123f6e70020d4e727
:020000040000fa
:02281600704709
:020000040000fa
:1028180070b50400431c02d00378002b00d170bdb2
:10282800456a1021fef7ccfbe378002b20d1a37b6f
:10283800012bf4d10026a6730a20205600f028fdab
:10284800a671134bab82ae722b89012213432b81e5
:10285800e378002be3d1002816d0a37a5ab2002ad5
:1028680012db1f221a40012393400a4a13600be02f
:102878000023a371064aaa82ab722b890122134353
:102888002b81e378002bcad10123a373c7e7c04685
:08289800ff03000000e100e075
:020000040000fa
:1028a00070b5040011795378002b14d1bc25435323
:1028b000e433c3585b6bc069984701230340605df4
:1028c00001229043184360552100bc3101322000a1
:1028d00000f0fcfb70bd012b07d0032b14d00c2b98
:1028e000f8d1012100f084fbf4e79078d3781b0243
:1028f0000343efd1e433e358db6ae06998470021f2
:10290000200000f075fbe5e79078d3781b020343c5
:10291000e0d1e433e3589b6ae06998470021200046
:0629200000f066fbd6e7a3
:020000040000fa
:02292600fee7ca
:020000040000fa
:1029280010b5082909d889001d4841588f46190053
:102938000d311868072200f0c5fb10bd591d186835
:10294800072200f02bfff8e71178c907c80f197d97
:102958000124a143014319751278022111401a7dff
:10296800022082430a431a751868002100f03cfbd4
:10297800e3e712889a841868002100f035fbdce749
:1029880020210120585452681a63d6e7186800219c
:1029980000f02afbd1e7212201219954cde7c04656
:0429a8003c370000b8
:020000040000fa
:1029ac0010b50400431c09d09a2252004243194b23
:1029bc009b1820331b785bb2022b00d010bd9a22df
:1029cc0052004243134b9b189b7a5ab2002a07dbe6
:1029dc001f221a40012393400f49c02252008b50f2
:1029ec009a22520062430b4b9b180122da705b7add
:1029fc00012b07d09a235b006343064ce418002399
:102a0c00e370dbe79a2040006043024bc018fdf7ef
:0c2a1c0059fbefe70004002000e100e09f
:020000040000fa
:102a2800f0b5de464f464646c0b586b00490b4239e
:102a3800c458a278e3781b021343994628d000268d
:102a480000239846059300250ee0a0780590e378ca
:102a58009846049900f0a3fa060008e02378ed18d8
:102a6800adb2e418a94513d96778042fedd0002e2c
:102a7800f4d0f368002bf1d0b268b08802940197c3
:102a8800414600911b689b46059b0499d847e5e79a
:0c2a980006b01cbc90469946a346f0bd59
:020000040000fa
:102aa40010b50a2807d88000184b1b589f46184aaf
:102ab40022230121d15410bd164b8022d2005a6129
:102ac400134b00221a73f6e70b78012bf3d1104a4b
:102ad4001373104b8021c90099610f49002000f045
:102ae400b3fee8e70a4b186800f038fee3e7084b4a
:102af400186800f0d6fd074b8022d2005a61dae74d
:102b0400044b8022d2005a61d5e7c0463835000014
:0c2b140090080020004400412929000026
:020000040000fa
:102b200010b584b041690190436802930823c356ed
:102b3000dab2012a07d9da1c1fd0043321d001ab45
:102b4000a0221a7202e001ab00221a720b015b187c
:102b50009a000e4b9b189a6b013a9a631c6a002ce0
:102b600009d00b0159188900084b59184b6a406964
:102b700001aa0521a04704b010bd01ab9e221a7224
:102b8000e4e701ab9f221a72e0e7c046cc070020c1
:020000040000fa
:102b900010b584b041690190436802930823c3567d
:102ba000dab2012a07d9da1c1fd0043321d001abd5
:102bb000a0221a7202e001ab00221a720b015b180c
:102bc0009a000e4b9b185a6b013a5a631c6a002cf0
:102bd00009d00b0159188900084b59184b6a4069f4
:102be00001aa0421a04704b010bd01ab9e221a72b5
:102bf000e4e701ab9f221a72e0e7c046cc07002051
:020000040000fa
:102c000010b5002805d10e2904d00f2924d00d2994
:102c100018d010bd154b186813789b0609d553784a
:102c2000012b0ad9203b032b07d9012100f0e0f941
:102c3000efe7012100f0dcf9ebe70c49002000f0a0
:102c40007ff8e6e7094b1c6a002ce2d05b6a0022a1
:102c500008210020a047dce7044b1c6a002cd8d0d8
:102c60005b6a002207210020a047d2e7cc070020a2
:020000040000fa
:102c700010b5002921d0002822d1134c2423012291
:102c8000e2540a686260114be3600423cb5623725e
:102c900000236361a36123622377136800210c483a
:102ca000984763685b689847a0220021094800f0b4
:102cb000b9fe02232370200010bd01204042fbe733
:102cc00001204042f8e7c046fc0800209f86010032
:082cd000752100002006002020
:020000040000fa
:102cd80070b5050044690823c35602332bd0237806
:102ce8007f2b0dd86378db071bd5637801229343cc
:102cf8006370a178e423e358db6ce069984710e03f
:102d0800ac23e15c3833e358db68e0699847227804
:102d18007f2313402370e37807229343042213434d
:102d2800e3700823eb56002b05d16b68002b02d10a
:082d3800c4330022e25470bd17
:020000040000fa
:102d400010b55378232b28d89b00164ce3589f4688
:102d50000c6a002c18d04b6a00220021a04713e017
:102d60000c6a002c10d04b6a00220121a0470be016
:102d70000c6a002c08d04b6a02320221a04703e003
:102d80000868012100f034f910bd0c6a002cfbd05a
:102d90004b6a02320321a047f6e70868012100f0e0
:082da00027f9f1e76c260000a1
:020000040000fa
:102da80010b5124b06225a6000f0cafafff7bcfbb6
:102db80000f052fefff72bfd00f0eaf900f052fd9b
:102dc8000b490020fff750ff0a4c60600a490020b9
:102dd800fef776ff206009490020fef7abfba060f4
:102de80000f08ef800f0b4f910bdc0460040004174
:102df800b03a0000400900203036000018370000c3
:020000040000fa
:102e080000230e4a10b513600d4a13600d4a136073
:102e18000d4a13600d4a13600d4a53621361013362
:102e2800936000f062fc00f060fc0a4c0a4b9c4284
:102e380000d310bd08cc9847f8e7c0466c090020bd
:102e480088070020840700207c07002080070020d6
:0c2e58008c070020bc000000c00000003f
:020000040000fa
:102e640010b5134b1a6a002a19d0824205d183691e
:102e7400002b15d0002208e01a009369002b0ed015
:102e84009842f9d18369002b05d08468996809199f
:102e94009960002a06d0836993610023836110bd81
:102ea4001a00f6e7024b1a6a92691a62f5e7c046fd
:042eb400fc080020f6
:020000040000fa
:102eb80070b5040008001500210000f070f8002823
:102ec80019d0c368002b10d09b68002b07d0c434de
:102ed800e3608088a0802a000e21984770bd2a00f0
:102ee8000e21200000f0f7faf8e72a000e21200052
:102ef80000f0f1faf2e70121200000f075f8ede7a3
:020000040000fa
:102f080010b5104b00221a710121494219601a7339
:102f1800802464425c73a5349c730024dc731c74a5
:102f28009a740820d8749961d961023118301954fb
:102f38000130195421315a54034a9a62034ada6219
:102f480010bdc046900800200000002000020020ac
:020000040000fa
:102f5800f0b5c64600b506783607760fad23c35cd4
:102f68009846078a4569002f16d0002405e01035d9
:102f78000134e4b2a3b2bb420ed22b783342f6d06e
:102f88006b784345f3d1eb68002bf0d05b68002bde
:0e2f9800edd0a8889847eae704bc9046f0bd4b
:020000040000fa
:102fa600f0b50d8a4a690c782407640fad23ce5c10
:102fb600002d18d0002305e010320133dbb299b2a0
:102fc600a9420dd211782142f6d05178b142f3d1ff
:102fd60091788142f0d8d77879188842ecda00e007
:0a2fe60000221000f0bd0022fbe7fe
:020000040000fa
:102ff00010b50c0000f088fc00281bd0c423002270
:10300000c254012c0dd00023436683660200643253
:10301000c469e433c3589b6b80212000984700208b
:1030200010bdc2692033c3589b6a802110009847a5
:0a3030000020f5e775204042f2e7aa
:020000040000fa
:02303a00fee7af
:020000040000fa
:10303c0010b5064c2378002b07d1054b002b02d082
:10304c00044800e000bf0123237010bd24090020b8
:10305c000000000000000000044b10b5002b03d052
:10306c000349044800e000bf10bdc046000000004a
:08307c002809002000000000fb
:020000040000fa
:1030840010b50a4b98470a4b9847fff735fb094b95
:10309400ff229343084a9360084b9847084b98478c
:1030a400084b984700f0d2fcfee7c0460b35000001
:1030b4000b3500000000000000ed00e0092e0000c8
:0830c4000b3500000b35000084
:020000040000fa
:1030cc0070b50d00140000f019fc002818d0020097
:1030dc00643245668466e023c35aa34205d006d900
:1030ec00030064330121197401e002211174c469d5
:1030fc00e423c3589b6b802120009847002070bdaf
:06310c0075204042fbe7c4
:020000040000fa
:02311200fee7d6
:020000040000fa
:1031140009024300020100c0320904000001020256
:1031240001000524002001042402020524060001f4
:1031340005240100010705810310000209040100b0
:10314400020a00000007050202400000070582028f
:043154004000000037
:020000040000fa
:10315800bff35f8f62b60c4bc12080001a58120271
:10316800120ac02109060a431a5080221a600c303c
:103178001a5806491140c02212040a431a508022e4
:10318800d2021a607047c04600e100e0ffff00ff6e
:020000040000fa
:103198000d4b01221a801a00d37b5bb2002bfbdb9c
:1031a800094b60221a808132ff321a83a63aff3a0d
:1031b8009a73064a0021116001225a731a00d37bc0
:1031c8005bb2002bfbdb7047002c00425809002043
:020000040000fa
:1031d800431e033314d803041b0c042b13d85901c2
:1031e8000a4a5218d169002281420ad15a01074974
:1031f800515c0022002904d05b01044a9a1800e0bf
:103208000022100070470022fbe7c046200600207d
:020000040000fa
:1032180010b5040000f0ccf8002817d02000fff704
:10322800d7ff041e10d04378002b08d10023237544
:1032380063752370002400f0eff8200010bdfff73d
:103248000dfe00236370f1e70124f4e70124f4e79d
:020000040000fa
:1032580030b5b423c0588378c5782d021d4315d0e6
:10326800002307e08478147004781b199bb20019b6
:103278009d4209d94478042cf4d0052cf4d18478e3
:103288008c42f1d1012000e0002030bd0020fce795
:020000040000fa
:1032980070b5050000f090fb0024002d0fdb0a49f3
:1032a8000a681f232b40da400134144001229a4057
:1032b800130080228b50bff34f8fbff36f8f00f046
:0c32c80037fb200070bdc04600e100e0b4
:020000040000fa
:1032d400002813d10c4b1b7a5bb2022b11d10a4a82
:1032e400d433d35c002b02d0012040420be0100009
:1032f4000133d6228354013a835404e0012040422e
:0c33040001e00120404270473405002029
:020000040000fa
:103310004b005918094b0a019a1842644a1c1201c1
:103320009a188264023109015918c164044b03617f
:10333000044b436100238371c3717047cc080020a4
:083340001008002050080020d5
:020000040000fa
:1033480010b50c4b8822d2001a60012242215a542f
:10335800002146201954013006241c540330195406
:1033680058315a5401315a5428395a543b3235315c
:08337800995410bd004400410e
:020000040000fa
:1033800070b5002800d070bd0a4c2568a11d28002a
:1033900000f02afa21000c31280000f025fa210063
:1033a0001431280000f020fa21001a31280000f022
:0833b0001bfae8e7cc0700203e
:020000040000fa
:1033b80010b50b4b1b7f0120002b05d1084a243385
:1033c800d35c0020012b00d010bd13002422002163
:1033d800995408201856fff75bff0120f4e7c04610
:0433e800fc080020bd
:020000040000fa
:1033ec0034034d006900630072006f0063006800d5
:1033fc0069007000200054006500630068006e00d6
:10340c006f006c006f0067007900200049006e00af
:04341c0063002e001b
:020000040000fa
:10342000094b1b7a5bb2002b05db1f221a400123dc
:103430009340064a1360044b1b7f002b03d1024ac2
:1034400024330121d1547047fc08002000e100e042
:020000040000fa
:103450002e03530069006d0070006c0065002000b1
:1034600043004400430020004400650076006900ea
:10347000630065002000440065006d006f00c046d9
:020000040000fa
:1034800010b5094c23785b00084a985a00f018fae6
:1034900023780133dbb223702378dbb2632b02d9ac
:1034a000014b00221a7010bd560900200c230000a9
:020000040000fa
:1034b0000f230b400022022b0dd8421c0dd01033dd
:1034c0009b001b185b6849b20911082211405b1868
:0e34d000d879073a0240100070470022fbe74f
:020000040000fa
:1034de0070b50d001100d823c4580300c433dc604e
:1034ee00028b9a80d523c35c012b00d070bd002cbb
:0c34fe00fcd0db33c2582800a047f7e7e1
:020000040000fa
:02350a00704708
:020000040000fa
:10350c008839000001000000bc3a000000000000f7
:10351c00000000000000000003000000843a0000de
:0c352c0000000000000000000000000093
:020000040000fa
:10353800ba2a0000ba2a0000bc2a0000ba2a0000f1
:10354800042b0000ba2a0000ba2a0000b22a0000a0
:0c355800e82a0000f22a0000cc2a000043
:020000040000fa
:1035640070b506000d00002804d00468002c05d1b5
:103574000023336070bda469002cf9d02572e36880
:0a358400002bf8d020009847f5e76f
:020000040000fa
:10358e00f8b514001d0000f0b8f900280ad0069b0b
:10359e009bb2c769e4228258166a2a0021003800bd
:0a35ae00b047f8bd7c204042fbe767
:020000040000fa
:1035b800002809d1074b5b78002b08d10548013357
:1035c800437000238363704701204042fbe70120da
:0835d8004042f8e70004002066
:020000040000fa
:1035e000a4190000a4190000b81800007819000000
:1035f00082190000a4190000a4190000a8190000f5
:083600008c1900009a1900006a
:020000040000fa
:1036080070b50d00140000f07bf9011e09d0d82315
:10361800c5500433c450c0690833cb589b68014a6d
:08362800984770bd9d180000d9
:020000040000fa
:10363000000000000000000000000000000000008a
:1036400001000000143a00000c35000002000000e8
:08365000000000002c0700201f
:020000040000fa
:10365800084b1b7b0020002b0bd1064b01221a7153
:10366800012149429961d96121315a5401315a5491
:083678000130704790080020aa
:020000040000fa
:10368000431c0ed00f230b4010339b001b185b68ac
:1036900049b20911082211405b18d8798007c00f80
:0636a00070470020fce76a
:020000040000fa
:1036a60010b500f02ef9041e0cd0e423c358db69d4
:1036b600c06998476378042293436370e3780332c2
:0636c6009343e37010bd08
:020000040000fa
:1036cc0070b50c00150000f019f9002808d0c66977
:1036dc00e423c3589b6b2a0021003000984770bd2f
:0636ec007d204042fbe7d7
:020000040000fa
:0236f20070471f
:020000040000fa
:1036f40010b5064b987bc0b23b229a73044b1b68ef
:10370400002b02d0024a5168984710bd002c004299
:043714005809002030
:020000040000fa
:103718000000000000500041010007000000020105
:103728000000000000000000000000000000000091
:04373800000000008d
:020000040000fa
:10373c004429000036290000502900007a29000095
:10374c009e2900008829000042290000422900001f
:04375c0094290000ac
:020000040000fa
:1037600010b500f0d1f8041e0ad0e423c3589b69b9
:10377000c0699847e3780722934302221343e3701a
:0237800010bd7a
:020000040000fa
:1037820010b50c0000f0bff8002807d0c269e4238e
:10379200c3585b6a21001000984710bd7c2040424c
:0237a200fbe743
:020000040000fa
:1037a40070b50d00140000f0adf8002806d0c43048
:1037b4008560002343708470002070bd75204042f2
:0237c400fbe721
:020000040000fa
:1037c60010b50c0000f09df8002807d0c269e4236c
:1037d600c3581b6c21001000984710bd7d20404245
:0237e600fbe7ff
:020000040000fa
:1037e80070b505000c000b79002b00d170bd09786d
:1037f800fff7e5ff21782800fff7bfff00232371bb
:02380800f4e7e3
:020000040000fa
:10380c00431c09d0436a01218171044a9a831d2209
:10381c001a831a898a431a817047c046ff03000035
:020000040000fa
:10382c00b81e0000101e00002a1e0000821e0000a0
:10383c00b81e0000b81e0000601e00004c1e0000e8
:020000040000fa
:10384c00002805d1002906d0044b19625a62704732
:10385c0078204042fbe77d204042f8e7cc0700206f
:020000040000fa
:10386c00054b01225a7000229a7002321a701a000b
:0c387c00d379002bfcd1704700480042bb
:020000040000fa
:1038880010b5054c2068fef793fba068fef7d6fc40
:0c389800fdf7ccfa10bdc046400900202e
:020000040000fa
:1038a400480e0000740e0000840e0000c20e0000da
:0c38b400500f0000060f0000360f00004f
:020000040000fa
:1038c0008005800d034b18811a00d379002bfcd1a1
:0838d0007047c04600480042a9
:020000040000fa
:1038d800044a138802210b431380d37b5bb2002b6d
:0838e800fbdb7047002c0042dd
:020000040000fa
:1038f000044a138802218b431380d37b5bb2002bd5
:08390000fbdb7047002c0042c4
:020000040000fa
:10390800431e033306d8d623c35c5a1e93415b4239
:08391800184070470020fce795
:020000040000fa
:10392000044b1b78002b03d1024b01225a701a70f2
:083930007047c0467009002039
:020000040000fa
:10393800002803d0bff35f8f62b6704772b6bff33b
:043948005f8ffae7ac
:020000040000fa
:10394c00034b18831a00d37b5bb2002bfbdb704755
:04395c00002c0042f9
:020000040000fa
:10396000d523000081330000012c0000000000007e
:0439700021390000f9
:020000040000fa
:103974006d3a0000d9380000f1380000993a00008f
:043984004d390000b9
:020000040000fa
:103988001201000202000040d8040a0000010102ee
:043998000001c04624
:020000040000fa
:10399c00431c05d04378002b02d000234370836373
:0239ac00704762
:020000040000fa
:1039ae00431c04d0436a188a8004400d70470020df
:0239be00fce724
:020000040000fa
:1039c000eff3108072b6bff35f8f43425841c0b22d
:0239d00070473e
:020000040000fa
:1039d200002310b59a4200d110bdcc5cc45401330f
:0239e200f8e704
:020000040000fa
:1039e40010b5024b9868fef7dfff10bd40090020b8
:020000040000fa
:1039f400431c04d04378002b01d041638263704799
:020000040000fa
:103a0400431c04d0426a138902210b43138170477b
:020000040000fa
:103a14000301000200000000783a00006039000051
:020000040000fa
:103a240003001218934200d1704719700133f9e76b
:020000040000fa
:0e3a3400431c03d0436a8022114399727047ed
:020000040000fa
:0e3a4200431c02d03023c05c70470020fce71c
:020000040000fa
:0e3a500010b50020fff7a8f9fff716fffce7fe
:020000040000fa
:0c3a6000014b82225a6070470040004178
:020000040000fa
:0c3a6c00014b1860596070475809002099
:020000040000fa
:0c3a78000100000001000000010000003f
:020000040000fa
:0c3a8400c03a0000ec3300005034000099
:020000040000fa
:083a9000011002200330044084
:020000040000fa
:083a980000487047006cdc02dd
:020000040000fa
:083aa00010b5fff78dff10bd0a
:020000040000fa
:083aa80010b5fff745ff10bd4a
:020000040000fa
:083ab00074390000120000004f
:020000040000fa
:043ab8000201030004
:020000040000fa
:043abc0014310000c1
:020000040000fa
:043ac00004030904ee
:020000040000fa
:043ac400320d0a00b5
:020000040000fa
:043ac8007047c0463d
:020000040000fa
:0200000400807a
:0440000077c700d8a6
:020000040000fa
:0200000400807a
:044004005c00ffff5e
:00000001FF
